:020000040800F2
:10000000D0070020790400089D0100089F01000826
:10001000A3010008A7010008AB01000800000000D0
:10002000000000000000000000000000AF01000818
:10003000B101000800000000B3010008B50100088C
:100040009304000893040008930400089304000834
:100050009304000893040008930400089304000824
:100060009304000893040008930400089304000814
:100070009304000893040008930400089304000804
:1000800093040008930400089304000893040008F4
:1000900093040008930400089304000893040008E4
:1000A00093040008930400089304000893040008D4
:1000B000F926000893040008E126000893040008CC
:1000C00093040008930400089304000893040008B4
:1000D00093040008930400089304000893040008A4
:1000E000193D0008930400089304000800F002F88A
:1000F00000F03FF80AA090E8000C82448344AAF183
:100100000107DA4501D100F034F8AFF2090EBAE880
:100110000F0013F0010F18BFFB1A43F0010318473B
:10012000D0B50000F0B50000103A24BF78C878C1FF
:10013000FAD8520724BF30C830C144BF04680C60ED
:10014000704700000023002400250026103A28BF35
:1001500078C1FBD8520728BF30C148BF0B60704739
:10016000642907F03780002070471FB51FBD10B508
:1001700010BD07F0FFF91146FFF7F7FF00F00CF98B
:1001800007F01DFA03B4FFF7F2FF03BC02F0EAF830
:1001900030BF72B662B680F308887047704700BF00
:1001A000FEE700BFFEE700BFFEE700BFFEE77047C7
:1001B00070477047704700000CB500200190009018
:1001C0006C48006840F480306A49086000BF6948A4
:1001D000006800F4003000900198401C01900098E5
:1001E00018B90198B0F5A06FF1D16248006800F429
:1001F000003010B10120009001E000200090009834
:10020000012843D15C48006840F010005A4908605A
:100210000846006820F0030008600846006840F0C7
:1002200002000860534840685249486008464068E8
:1002300048600846406840F480604860084640686E
:1002400020F47C1048600846406840F4E81048609C
:100250000846006840F08070086000BF45480068AC
:1002600000F000700028F9D04248406820F00300F8
:10027000404948600846406840F00200486000BFBE
:100280003C48406800F00C000828F9D10CBD10B5BE
:10029000FFF792FF10BD10B53648006840F001002E
:1002A000344908600846406834490840314948608C
:1002B00008460068324908402E4908600846006830
:1002C00020F4802008600846406820F4FE00486062
:1002D0004FF41F008860FFF7DAFF4FF000602949F4
:1002E000086010BD10B5002100200022214B5B6882
:1002F00003F00C0121B1042906D0082928D107E018
:10030000214B224C236027E01F4B204C236023E02D
:10031000184B5B6803F47010164B5B6803F4803273
:10032000022303EB904022B9194B4343174C23603F
:100330000DE0104B5B6803F4003323B1144B4343CF
:10034000124C236003E0104B4343104C236003E046
:100350000D4B0E4C236000BF00BF064B5B68C3F320
:1003600003130C4CE15C094B1B68CB40074C23602A
:1003700010BD000000100240002002400000FFF805
:10038000FFFFF6FE08ED00E000127A0000000020FA
:1003900000093D0004000020022001F08BFE01F066
:1003A00019FE02F054F802F02FF8002141F61F4028
:1003B00002F082F802F0D8F802F023F94FF4E130AD
:1003C00001F0DFFF02F0ACF906F0F9FC06F00BFDDE
:1003D00002F03AFC03F01DFA4FF6FF7003F059FBF0
:1003E000002003F056FB4FF4784003F052FB4FF42B
:1003F000FC6003F04EFB1F2003F04BFB4FF6FF7039
:1004000003F047FB2EE000211748006808F096FB38
:100410000BD22D220021192002F0B4FF12480068EF
:1004200080F000401049086004E0202200211920DB
:1004300002F0A8FF0C48006808F034FB84B20323E4
:1004400022460021232002F0DDFF01200749086039
:100450000548006808F07AF9044622460B4604A0D5
:1004600006F078FECFE7000020000020B401224211
:1004700025640D0A0000000009488047094800472C
:10048000FEE7FEE7FEE7FEE7FEE7FEE7FEE7FEE744
:10049000FEE7FEE704480549054A064B70470000A1
:1004A00097020008ED000008D0010020D0070020CE
:1004B000D0030020D003002031490143314A1160AC
:1004C000704770B5002100230F22C47804B32D4C6F
:1004D000246804F4E064C4F5E064210AC1F1040373
:1004E000CA40447804FA03F1847814402143090196
:1004F000254C0678A155047804F01F050124AC4072
:1005000005786D11AD0005F1E025C5F8004109E061
:10051000047804F01F050124AC401C4D06787611C8
:1005200045F8264070BD1A4A0A400243154B1B1F6E
:100530001A60704739B1134A121D12680243114BF9
:100540001B1D1A6006E00F4A121D126882430D4BF4
:100550001B1D1A607047042808D14FF0E02109697B
:1005600041F004014FF0E022116107E04FF0E0217B
:10057000096921F004014FF0E02211617047000089
:100580000000FA050CED00E000E400E080E100E08E
:1005900080FFFF1F002044490860091D0860091DF5
:1005A0000860091D086041483F49143108607047E0
:1005B00000213D498279002A3AD00A461268036830
:1005C0009A430B461A600A1D126803689A430B1D72
:1005D0001A60027911440A6803681A430A60324AB1
:1005E0000832126803689A432F4B08331A601A1DA9
:1005F000126803689A432C4B0C331A604279102A14
:100600000ED11A1F126803681A43274B08331A6069
:100610001A1D126803681A43234B0C331A600DE04D
:100620002149427911440A6803681A430A6005E0C7
:10063000027911440A6803689A430A6070470021EE
:10064000016001710C2141710021817170471649CF
:10065000103109680143144A103211607047014695
:100660000020114A143212680A400AB1012000E049
:10067000002070470C491431086070470146002083
:100680000022094B1B6803EA0102074B14331B6865
:100690000B4013B10AB1012000E00020704702496D
:1006A000143108607047000000040140FFFF0F0094
:1006B00010B50446CC48844208D10121042000F042
:1006C0002DFB0021042000F029FB46E0C7488442AE
:1006D00008D10121082000F021FB0021082000F0B2
:1006E0001DFB3AE0C248844208D10121102000F0ED
:1006F00015FB0021102000F011FB2EE0BD488442C4
:1007000008D10121202000F009FB0021202000F069
:1007100005FB22E0B848844208D10121402000F0C6
:10072000FDFA0021402000F0F9FA16E0B3488442B7
:1007300008D10121802000F0F1FA0021802000F092
:10074000EDFA0AE0AE48844207D10121801500F09D
:10075000E5FA0021A01500F0E1FA10BD10B5012165
:10076000084600F0DBFA0021012000F0D7FA10BDA6
:100770002DE9F04102460025002600200023002438
:10078000002791F803C00CF00F0591F803C00CF09E
:10079000100CBCF1000F03D091F802C04CEA050523
:1007A00091F800C0BCF1000F31D0146800202BE09C
:1007B0004FF0010C0CFA00F3B1F800C00CEA03068C
:1007C0009E4220D183004FF00F0C0CFA03F7BC437C
:1007D00005FA03FC4CEA040491F803C0BCF1280FAD
:1007E00006D14FF0010C0CFA00FCC2F814C00AE06C
:1007F00091F803C0BCF1480F05D14FF0010C0CFA81
:1008000000FCC2F810C0401C0828D1D31460B1F815
:1008100000C0BCF1FF0F34DD546800202EE000F171
:10082000080C4FF0010808FA0CF3B1F800C00CEA0C
:1008300003069E4221D183004FF00F0C0CFA03F700
:10084000BC4305FA03FC4CEA040491F803C0BCF174
:10085000280F05D100F1080C08FA0CF8C2F8148032
:1008600091F803C0BCF1480F07D100F1080C4FF01C
:10087000010808FA0CF8C2F81080401C0828CED3F2
:100880005460BDE8F0814FF6FF7101800221817054
:100890000421C17070470246002093680B400BB1E1
:1008A000012000E0002070470146886880B2704750
:1008B00002460020D3680B400BB1012000E000206D
:1008C00070470146C86880B2704701617047416156
:1008D00070470AB1016100E041617047C160704733
:1008E0004FF480320A438261816182618269826948
:1008F000704702460020434B18684FF6807318403B
:1009000040EA021008433F4B186070473E49C861F7
:100910007047F0B50A46002300240021002500F0AE
:100920000046B6F1004F02D1364EF16901E0354E76
:100930007168C0F3034583B200F44016B6F5401F5A
:1009400008D121F070612F4E766826F070662D4F29
:100950007E6012E000F48016B6F5801F06D10326F3
:1009600006FA05F4A14341F0706106E0460D360138
:1009700003FA06F6B14341F0706122B1460D36012B
:1009800003FA06F6314300F00046B6F1004F02D1FB
:100990001C4EF16101E01B4E7160F0BD30B50022CC
:1009A0008B071C0F0F2303FA04F2164B08338C102D
:1009B00053F824309343134C08348D1044F82530F9
:1009C00023468C1053F824308C07240F00FA04F4CB
:1009D00023430C4C08348D1044F8253030BD0A49AF
:1009E000DC3108607047000000080140000C014045
:1009F000001001400014014000180140001C01409B
:100A0000002001400000014000002042DF48006853
:100A100040F00100DD49086008464068DC490840B4
:100A2000DA49486008460068DA490840D749086052
:100A30000846006820F4802008600846406820F4DA
:100A4000FE0048604FF41F0088607047CF49096876
:100A500021F48031CD4A11601146096821F48021CA
:100A60001160B0F5803F03D0B0F5802F0ED106E0C5
:100A7000C649096841F48031C44A116007E0C3499E
:100A8000096841F4A021C14A116000E000BF00BF25
:100A9000704710B501460022002300204A11012AA8
:100AA00002D1BA4C236806E0022A02D1B74C236A6D
:100AB00001E0B64C636A01F01F02012494401C401F
:100AC0000CB1012000E0002010BD38B500200090DE
:100AD0000024002500BF3120FFF7DBFF054600980A
:100AE000401C00900098B0F5A06F01D0002DF2D00E
:100AF0003120FFF7CEFF08B1012400E0002420469A
:100B000038BD01460020A14A106820F0F80040EAF4
:100B1000C10010607047A04908607047024600207D
:100B20009A4B586820F47C1042EA01031843974B13
:100B30005860704798490866704701460020934AFC
:100B4000506820F003000843506070478F484068A9
:100B500000F00C007047014600208C4A506820F0DD
:100B6000F00008435060704701460020874A5068F3
:100B700020F4E06008435060704701460020834A3B
:100B8000506820F4605040EAC1005060704729B1BD
:100B90007E4A527A02437D4B5A7204E07B4A527A73
:100BA00082437A4B5A7270477B49D831086070474C
:100BB00001460020754A506820F4404008435060C8
:100BC00070470021714A20321170704A82F820105B
:100BD000012802D004280AD104E001216B4A203206
:100BE000117005E00521694A2032117000E000BF54
:100BF00000BF70476949086070476449096A01434A
:100C0000624A11627047654944390860704730B5DF
:100C100000210022002400235C4D6D6805F00C01CA
:100C200021B1042905D0082923D105E05C4D0560D8
:100C300022E05B4D05601FE0544D6D6805F47012B5
:100C4000524D6D6805F48034022505EB92421CB9C3
:100C5000544D554305600BE04C4D6D6805F400356F
:100C60001DB1504D5543056002E04D4D55430560A3
:100C700002E04B4D056000BF00BF444D6D6805F0BC
:100C8000F0010909484D6B5C0568DD4045603F4D4A
:100C90006D6805F4E061090A434D6B5C4568DD4011
:100CA00085603A4D6D6805F46051C90A3E4D6B5C34
:100CB0004568DD40C560354D6D6805F44041890BE0
:100CC0003A4D6B5CC568B5FBF3F5056130BD29B1E4
:100CD0002E4A526902432D4B5A6104E02B4A526955
:100CE00082432A4B5A61704729B1284A92690243CC
:100CF000264B9A6104E0254A92698243234B9A610C
:100D0000704729B1214AD2690243204BDA6104E0DD
:100D10001E4AD26982431D4BDA61704729B11B4AD2
:100D2000D2680243194BDA6004E0184AD268824361
:100D3000164BDA60704729B1144A12690243134B0B
:100D40001A6104E0114A12698243104B1A6170471C
:100D500012494039086070470F49C86470470B4911
:100D6000C87170470948406A40F08070074948627E
:100D7000704701460020054A92680A400AB10120E6
:100D800000E000207047014988727047001002405F
:100D90000000FFF8FFFFF6FE0000424280044242DE
:100DA00000127A0000093D002C0000203C000020C9
:100DB00010B50446FE48844208D10121C014FFF753
:100DC000ADFF0021E014FFF7A9FFC4E0B4F1804FAC
:100DD00008D101210846FFF7AEFF00210120FFF7EF
:100DE000AAFFB8E0F348844208D101210220FFF7AE
:100DF000A2FF00210220FFF79EFFACE0EE488442F4
:100E000008D101210420FFF796FF00210420FFF7FD
:100E100092FFA0E0E948844208D101210820FFF7B1
:100E20008AFF00210820FFF786FF94E0E44884420F
:100E300008D101211020FFF77EFF00211020FFF7CD
:100E40007AFF88E0DF48844208D101212020FFF7A3
:100E500072FF00212020FFF76EFF7CE0DA48844219
:100E600008D101214014FFF759FF00216014FFF75A
:100E700055FF70E0D548844209D10121C804FFF72D
:100E80004DFF00214FF40020FFF748FF63E0D048FA
:100E9000844209D101210805FFF740FF00214FF4EA
:100EA0008010FFF73BFF56E0CA48844209D1012178
:100EB0004805FFF733FF00214FF40010FFF72EFF26
:100EC00049E0C548844208D101214020FFF733FFA3
:100ED00000214020FFF72FFF3DE0C048844208D1A9
:100EE00001218020FFF727FF00218020FFF723FF4B
:100EF00031E0BB48844208D101218015FFF71BFF78
:100F00000021A015FFF717FF25E0B648844209D15C
:100F100001210804FFF702FF00214FF48030FFF7A2
:100F2000FDFE18E0B048844209D101214804FFF7D2
:100F3000F5FE00214FF40030FFF7F0FE0BE0AB4868
:100F4000844208D101218804FFF7E8FE00214FF414
:100F50008020FFF7E3FE10BD00220288944B9842E8
:100F60000ED0994B98420BD0B0F1804F08D0914BE6
:100F7000984205D0904B984202D0904B984204D1B1
:100F80004FF68F731A404B881A438D4B984207D007
:100F90008C4B984204D04FF6FF431A40CB881A433B
:100FA00002808B8883850B880385814B98420BD008
:100FB000854B984208D08B4B984205D08A4B98427B
:100FC00002D08A4B984201D10B7A03860123838297
:100FD000704770B5002400220023058C4FF6FE7682
:100FE00035400584028C8388048B4FF68F752C4026
:100FF000B51E2C400D882C43751E2A400D892A43AE
:101000004D882A436A4DA8420BD06F4DA84208D0A4
:10101000744DA84205D0744DA84202D0734DA84229
:1010200013D14FF6F7752A404D892A434FF6FB75C9
:101030002A408D882A434FF6FF652B404FF6FF5517
:101040002B408D892B43CD892B4383800483CD880E
:101050008586028470BD70B5002400220023058CB3
:101060004FF6EF7635400584028C8388048B48F672
:10107000FF752C404FF6FF452C400D884FF6FF764C
:1010800006EA05252C434FF6DF752A400D8906EA4E
:1010900005152A434D8806EA05152A43444DA84202
:1010A00002D0494DA8421DD14FF67F752A404D8987
:1010B0004FF6FF7606EA05152A434FF6BF752A401C
:1010C0008D8806EA05152A434FF6FF352B404FF26F
:1010D000FF752B408D8906EA85052B43CD8906EAED
:1010E00085052B4383800483CD880587028470BDEA
:1010F00070B5002400220023058C4FF6FF663540B2
:101100000584028C8388848B4FF68F752C404FF6B4
:10111000FC752C400D882C434FF6FF552A400D8955
:101120004FF6FF7606EA05252A434D8806EA05258F
:101130002A431F4DA84202D0234DA8421DD14FF291
:10114000FF752A404D894FF6FF7606EA05252A43AA
:101150004FF6FF352A408D8806EA05252A434EF6CC
:10116000FF752B404DF6FF752B408D8906EA05155E
:101170002B43CD8906EA05152B4383808483CD88D4
:101180008587028470BD70B5002200230024058C81
:101190004EF6FF7635400584038C8488828B48F6B2
:1011A000FF752A404FF6FF452A400D8820E00000D9
:1011B000002C01400004004000080040000C0040EA
:1011C000001000400014004000340140004C014079
:1011D000005001400054014000180040001C004035
:1011E0000020004000400140004401400048014010
:1011F0004FF6FF7606EA05252A434DF6FF752B408C
:101200000D8906EA05352B434D8806EA05352B4343
:10121000FA4DA84202D0FA4DA84208D14BF6FF750C
:101220002C408D894FF6FF7606EA85152C43848085
:101230008283CD88A0F84050038470BD828B4FF22A
:10124000FF331A408283828B4FF6FF7303EA012338
:101250001A4382837047F0B50C46154600220021E0
:101260000026078C4EF6FF7C07EA0C070784828B6A
:10127000018C4FF6FF7707EA043640F6FF473A4005
:101280004FF6FF7707EA05273A434FF6FF7707EA5D
:1012900003373A43D94FB8420ED0D94FB8420BD09A
:1012A000B0F1804F08D0D74FB84205D0D64FB842E2
:1012B00002D0D64FB84206D14DF6FF77394046F4FA
:1012C0008057394305E047F6FF57394044F48057CB
:1012D000394382830184F0BD828B4FF6F3731A4049
:1012E0008283828B0A4382837047F0B50C46154691
:1012F000002200210026078C4FF6FF6C07EA0C073E
:101300000784828B018C4FF6FF7707EA04264FF69D
:101310000C773A404FF6FF7707EA03172F433A431B
:10132000B64FB8420ED0B64FB8420BD0B0F1804F96
:1013300008D0B44FB84205D0B34FB84202D0B34F33
:10134000B84206D14FF6FF57394046F4807739430B
:1013500005E04FF2FF57394044F4807739438283E8
:101360000184F0BD028B4FF2FF331A400283028BDF
:101370004FF6FF7303EA01231A4302837047F0B567
:101380000C461546002200210026078C4FF6EF7C04
:1013900007EA0C070784028B018C4FF6FF7707EAF8
:1013A000041640F6FF473A404FF6FF7707EA033747
:1013B0003A434FF6FF7707EA05273A438F4FB84283
:1013C0000ED08F4FB8420BD0B0F1804F08D08D4F68
:1013D000B84205D08C4FB84202D08C4FB84206D1EB
:1013E0004FF6DF77394046F01007394305E04FF6F6
:1013F0005F77394044F01007394302830184F0BD20
:10140000028B4FF6F3731A400283028B0A43028366
:101410007047F0B50C46154600220021068C4FF6A9
:10142000FE773E400684028B018C4FF60C763240EC
:101430007E1C06EA03162E433243704EB0420ED095
:101440006F4EB0420BD0B0F1804F08D06D4EB0421D
:1014500005D06D4EB04202D06C4EB04206D14FF670
:10146000FD76314044F00106314305E04FF6F57654
:10147000314044F00106314302830184F0BD70B570
:1014800005460C465D4885420ED05D4885420BD02E
:10149000B5F1804F08D05B48854205D05A48854257
:1014A00002D05A48854200D100E000BF208850B9E0
:1014B0002389A28861882846FFF7ABFFE188284688
:1014C000FFF79EFF25E0208804280AD12389A288FF
:1014D00061882846FFF753FFE1882846FFF742FF5F
:1014E00017E0208808280AD12389A2886188284625
:1014F000FFF7FBFEE1882846FFF7EEFE09E02389AF
:10150000A28861882846FFF7A6FEE1882846FFF7F3
:1015100095FE70BD2DE9F04105460C4600260127D9
:10152000608808B9022600E00026A088012801D1C1
:10153000022700E001272088A0B92389A2886188BA
:101540002846FFF766FFE1882846FFF759FF238901
:101550003A4631462846FFF712FFE1882846FFF752
:1015600001FF13E02389A28861882846FFF707FF5F
:10157000E1882846FFF7F6FE23893A463146284699
:10158000FFF747FFE1882846FFF73AFFBDE8F08103
:101590000A884B881A438B881A43CB881A430B89D5
:1015A0001A434B891A438B891A43A0F84420704789
:1015B0004FF6FF71818000210180C180418001725E
:1015C00070470021018041808180C180018141817B
:1015D0008181C1817047002101804180012181808A
:1015E0000021C180018170470021018041808180FC
:1015F000C18001814181818170470000002C014040
:10160000003401400004004000080040000C00408D
:1016100021B1028842F00102028004E002884FF604
:10162000FE731A400280704731B1B0F8442042F492
:101630000042A0F8442005E0B0F84420C2F30E02B6
:10164000A0F8442070471AB183890B43838102E0DC
:1016500083898B43838170478182704741EA02030B
:10166000A0F8483070471AB183890B43838102E0A8
:1016700083898B438381704701894FF6F87211404B
:10168000018170470A46002101894FF68F73194086
:1016900011430181704730B504460D462946204666
:1016A000FFF7F0FF208940F00700208130BD2DE9D1
:1016B000F04104460D4616461F46602D06D13B46B6
:1016C000012231462046FFF75AFE05E03B46012243
:1016D00031462046FFF79DFE29462046FFF7D2FF00
:1016E000208940F007002081BDE8F08130B50C462C
:1016F00000210189C9B24FF6FF7505EA032515439C
:1017000025432943018130BD2DE9F04105460E46B0
:1017100017469846002443463A4631462846FFF786
:10172000E5FF2C894FF6F870044044F007044FF6AB
:101730008F70044044F070042C81BDE8F081F0B556
:1017400004460D4616461F463B463246294620466D
:10175000FFF7CCFF208940F480402081F0BD018557
:10176000828270470A46002101884FF68F73194024
:10177000114301807047F0B50C4615461E46002106
:10178000002200230189028B038C4FF6F877394041
:1017900021434FF6FC473A4040F201173A434FF6D7
:1017A000DD773B404FF6FF7707EA06172F433B43B1
:1017B000018102830384F0BD0A460021018B4FF6AC
:1017C0008F7319401143018370470A460021018B32
:1017D00048F6FF7319404FF6FF7303EA02231943DB
:1017E000018370470A460021818B4FF68F731940A1
:1017F0001143818370470A460021818B48F6FF73AD
:1018000019404FF6FF7303EA02231943818370479F
:1018100021B1028842F08002028004E002884FF683
:101820007F731A400280704721B1828842F004021F
:10183000828004E082884FF6FB731A4082807047F2
:1018400021B1828842F00802828004E082884FF64B
:10185000F7731A408280704721B1828842F00102FA
:10186000828004E082884FF6FE731A4082807047BF
:101870000A460021018B4FF6F7731940114301838B
:1018800070470A460021018B4FF2FF7319404FF653
:10189000FF7303EA02231943018370470A460021BC
:1018A000818B4FF6F77319401143818370470A46C5
:1018B0000021818B4FF2FF7319404FF6FF7303EA4B
:1018C00002231943818370470A460021018B4FF69A
:1018D000FB7319401143018370470A460021018BB5
:1018E0004FF6FF3319404FF6FF7303EA0223194303
:1018F000018370470A460021818B4FF6FB73194024
:101900001143818370470A460021818B4FF6FF33D4
:1019100019404FF6FF7303EA02231943818370478E
:101920000A460021018B4FF67F7319401143018352
:1019300070470A460021018BC1F30E014FF6FF7379
:1019400003EA02231943018370470A460021818B71
:101950004FF67F7319401143818370470A46002177
:10196000818BC1F30E014FF6FF7303EA0223194383
:10197000818370470A460021018C4FF6FD731940A0
:101980001143018470470A460021018C4FF6F7731A
:1019900019401143018470470A460021018C4FF61B
:1019A000DF7319404FF6FF7303EA021319430184F2
:1019B00070470A460021018C4FF67F7319404FF69D
:1019C000FF7303EA02131943018470470A4600219A
:1019D000018C4FF6FF5319404FF6FF7303EA0223C1
:1019E0001943018470470A460021018C4FF2FF73AE
:1019F00019404FF6FF7303EA02231943018470472D
:101A00000A460021018C4DF6FF7319404FF6FF7313
:101A100003EA023319430184704730B500230124DF
:101A20008C40A3B2048C9C430484048C02FA01F51C
:101A3000ADB22C43048430BD30B5002304248C4067
:101A4000A3B2048C9C430484048C02FA01F5ADB269
:101A50002C43048430BD70B5034600200024184692
:101A6000183001258D40ACB21D8CA5431D8409B1F1
:101A7000082909D100EB6100056825F070050560B3
:101A80000568154305600EE00D1FC5F34E0528449B
:101A9000056825F4E045056005684FF6FF7606EA1F
:101AA00002263543056070BD21B1028842F0020272
:101AB000028004E002884FF6FD731A4002807047EE
:101AC00021B1028842F00402028004E002884FF64D
:101AD000FB731A400280704721B1828842F0800275
:101AE000828004E082884FF67F731A4082807047BC
:101AF00002884FF6F7731A40028002880A43028078
:101B0000704782884FF68F731A40828082880A431A
:101B10008280704702894FF6F8731A400281028969
:101B20000A430281704702894FF67F731A4002818F
:101B300002890A430281704781847047818570471A
:101B4000818670470187704781877047A0F84010F1
:101B5000704702884FF6FF431A40028002880A430A
:101B6000028070470146888E70470146088F704793
:101B70000146888F70470146B1F840007047014622
:101B8000888C70470146088D704702460020138AF2
:101B90000B400BB1012000E000207047CA430282D5
:101BA000704730B50246002000230024158A05EA5C
:101BB0000103958905EA010413B10CB1012000E08D
:101BC000002030BDCA4302827047000010B50446B1
:101BD000FB48844209D101218803FFF79FF80021C7
:101BE0004FF48040FFF79AF832E0F648844209D17A
:101BF00001214804FFF79FF800214FF40030FFF760
:101C00009AF825E0F048844209D101218804FFF7C1
:101C100092F800214FF48020FFF78DF818E0EB4890
:101C2000844209D10121C804FFF785F800214FF44F
:101C30000020FFF780F80BE0E548844208D101213D
:101C40000805FFF778F800214FF48010FFF773F8CC
:101C500010BD2DE9F04786B005460E460024A24689
:101C600000BFA1460027B08900B100BF2F462C8AD3
:101C70004CF6FF700440F08804432C82AC894EF689
:101C8000F3100440B0883189084371890843044344
:101C9000AC81AC8A4FF6FF400440B0890443AC826B
:101CA00001A8FEF7B4FFC648874202D1DDF810A0B4
:101CB00001E0DDF80CA0A88900F4004040B10AEB77
:101CC000CA0000EB0A1031684900B0FBF1F807E0E8
:101CD0000AEBCA0000EB0A1031688900B0FBF1F88A
:101CE0006420B8FBF0F004012009642101FB108995
:101CF000A88900F4004040B1322000EBC900B0FBDD
:101D0000F1F000F00700044308E0322000EB091076
:101D10006421B0FBF1F000F00F0004432C8106B009
:101D2000BDE8F0874FF41651016000218180C18029
:101D300001810C21418100218181704710B502464B
:101D40000020108A4FF2FF0318400B884C88234371
:101D50008C882343CC8823431843108210BD002174
:101D6000018041808180C180704721B1828942F425
:101D70000052828104E082894DF6FF731A4082810D
:101D80007047F0B50346002400260025002040F6E9
:101D90006A17B94200D100BF1846C1F3421401F0DE
:101DA0001F06012707FA06F5012C01D10C3004E0CB
:101DB000022C01D1103000E014301AB107682F4313
:101DC000076002E00768AF430760F0BD1AB1838A7D
:101DD0000B43838202E0838A8B4383827047028AAB
:101DE0004FF6F0731A400282028A0A430282704759
:101DF00082894FF2FF731A40828182890A4382816D
:101E0000704721B1828942F00202828104E0828916
:101E10004FF6FD731A4082817047028A4FF6DF73D6
:101E20001A400282028A0A430282704721B1028A62
:101E300042F48042028204E0028A4BF6FF731A40A9
:101E400002827047C1F30802828070470146888889
:101E5000C0F308007047818941F00101818170471A
:101E6000028BD2B20283028B42EA012202837047C4
:101E7000028B02F47F420283028B0A430283704783
:101E800021B1828A42F02002828204E0828A4FF6E7
:101E9000DF731A408282704721B1828A42F01002B9
:101EA000828204E0828A4FF6EF731A408282704782
:101EB00021B1828A42F00802828204E0828A4FF6CF
:101EC000F7731A408282704721B1828942F400423E
:101ED000828103E08289C2F30E028281704721B1C0
:101EE000828A42F40062828204E0828A4FF2FF73A7
:101EF0001A4082827047828A4FF6FB731A408282B0
:101F0000828A0A438282704721B1828A42F00202A9
:101F1000828204E0828A4FF6FD731A408282704703
:101F200002460020B1F5007F00D100BF13880B40AE
:101F30000BB1012000E00020704701F40072B2F5FF
:101F4000007F00D100BFCA430280704770B50246CF
:101F5000002400230025002040F66A16B14200D17B
:101F600000BFC1F3421501F01F03012606FA03F377
:101F7000012D02D19689334006E0022D02D1168A46
:101F8000334001E0968A33400C12012606FA04F42D
:101F90001688344013B10CB1012000E0002070BD60
:101FA00010B50022002340F66A14A14200D100BF00
:101FB0000A1201249440A3B2DC43048010BD000047
:101FC000003801400044004000480040004C004000
:101FD0000050004010B56FF00400FEF7BCFA2E4828
:101FE00000682E49B0FBF1F02D49087008460078D2
:101FF00000EB4001C1EBC0104FF6FF7101EAC000D9
:102000002849088010BD0146254A12784A434FF0FE
:10201000E0235A6100229A611A46126942F00102D5
:102020001A6100BF4FF0E022106900F001021AB1FE
:1020300000F48032002AF5D04FF0E022126922F03D
:1020400001024FF0E0231A6100229A6170470146B5
:10205000144A12884A434FF0E0235A6100229A61E1
:102060001A46126942F001021A6100BF4FF0E022E5
:10207000106900F001021AB100F48032002AF5D094
:102080004FF0E022126922F001024FF0E0231A61C2
:1020900000229A61704700000000002000127A00C0
:1020A0004000002042000020A34A0A400243A34B04
:1020B0001A6070470146072323EA010212029F4B70
:1020C0001B1D18684FF6FF0318409D4B1843104323
:1020D0009A4B1B1D186070472DE9F0410746884652
:1020E00014461D462846FFF7E5FFC5F1040007FA30
:1020F00000F60F20284100EA0800064306F00F060C
:10210000E21704EBD2625211920002F1E022D2F8FF
:1021100000212146E31704EBD3635B11A4EB431CBE
:10212000012303FA0CF31A432046E31704EBD363AD
:102130005B119B0003F1E023C3F800218148005D9F
:1021400040EA06107F490855BDE8F08170B50446A5
:102150000B46CE1701EB9676C6F38700CE1701EB40
:102160009676B610A1EB8606B606350E764B9B69C1
:1021700043F00103744EB3614FEAB63353F8203095
:102180000F26AE40B343714E46F82030334653F825
:10219000203004FA05F61E436C4B43F820606C4B6C
:1021A0001B6801268E403343694E336002F0010301
:1021B00043B1674B0C331B6801268E403343644E9A
:1021C0000C36336002F0020343B1614B08331E68E2
:1021D00001238B401E435E4B08331E6070BD00B56B
:1021E000002059490861C8601420486100208861B6
:1021F000C8610846006840F0010008600846406871
:10220000544908405049486008460068524908400F
:102210004D4908600846006820F4802008600846A0
:10222000406820F4FE0048600020886000214FF0E4
:102230000060FFF739FF00BD10B540480830006866
:1022400040F004003D49083108603F48C06940F053
:1022500080503D49C8614148406840F480703F4922
:1022600048600846006840F00400086008460068BE
:1022700040F002000860FDF78BFF10BD3048001DE4
:102280002E49091D08607047014649062E4A926989
:1022900042F001022C4B9A612C4A083A526822F013
:1022A000E0622A4B083B5A601A4652680A435A6059
:1022B000704730B504460025FFF791FF22480068BB
:1022C00040F480302049086000BF1F480068400C7F
:1022D0000028FAD04FF480601B494860A01EC4B2A9
:1022E0000846406840EA844048600846406840F438
:1022F000803048601A48006840F032001849086091
:102300001148006840F080700F49086000BF0E4817
:102310000068400E0028FAD00B48406840F00200E8
:102320000949486005E008484068C0F3870505F0A2
:102330000305022DF7D130BD80FFFF1F08ED00E03F
:102340000000FA0500E400E000100240080001402F
:10235000000401400000FFF8FFFFF6FE007000409F
:1023600000200240014600BF704700BF244A128887
:1023700002F04002002AF9D0C2B2214B1B1D1A8084
:10238000704710B586B00446012144F20400FEF700
:10239000ABFC4FF40070ADF8140003208DF816006C
:1023A00018208DF8170005A91648FEF7E1F94FF43B
:1023B0008060ADF8140004208DF8170005A91148BD
:1023C000FEF7D6F901940020ADF80800ADF80A0038
:1023D000ADF80C00ADF810000C20ADF80E0001A90E
:1023E0000748FFF736FC002240F225510448FFF76A
:1023F000C8FC01210248FFF7B8FC06B010BD000080
:10240000003801400008014008B501210420FEF712
:102410006BFC2020ADF8000048208DF803006946D1
:102420001748FEF7A5F908BD1648007838B11648D8
:10243000006820B900201349087001207047124835
:102440000068012801D10F4908700020F6E708B59F
:1024500001211020FEF748FC4FF40050ADF80000B9
:1024600010208DF8030003208DF80200694607480C
:10247000FEF77EF94FF400510448FEF728FA08BD34
:1024800000080140480000201401214200100140D2
:1024900008B501210820FEF727FC4FF47040ADF885
:1024A000000010208DF8030003208DF8020069461B
:1024B0002A48FEF75DF908BD30B589B005460C46DF
:1024C000FFF7E6FF0121C802FEF70EFC0121042000
:1024D000FEF70AFC4FF41060ADF8200018208DF8CC
:1024E000230003208DF8220008A91D48FEF740F9BB
:1024F000ADF81850ADF814400020ADF81A00ADF852
:10250000160005A91748FEF727FD6020ADF8040066
:102510000120ADF806000020ADF80A00ADF80C006F
:1025200001A91048FEF755FD01A90E48FEF72BFE44
:1025300001210C48FFF778F808210A48FFF798F9BD
:1025400008210848FFF7B3F901210648FFF760F9B1
:1025500001210448FFF75CF809B030BD000C0140D0
:1025600000080140002C014000B587B00121084659
:10257000FEF7C7FB01210420FEF7B6FB0320ADF8F0
:10258000000004208DF8030069466148FEF7F0F86A
:1025900004A8FFF70DF80020ADF810004FF6FF700B
:1025A000ADF814000020ADF81600ADF8120004A933
:1025B0004FF08040FEF7D0FC00231A4603214FF075
:1025C0008040FFF7D8F801A8FFF705F80A20ADF81A
:1025D0000C0001A94007FEF752FF01218807FFF711
:1025E000DDFA012211469007FFF72DF800214FF088
:1025F0008040FFF7A1FA01218807FFF709F807B02B
:1026000000BD00B587B001210420FEF77AFB01214F
:102610000820FEF769FBC020ADF8000004208DF80B
:10262000030069463B48FEF7A3F804A8FEF7C0FF85
:102630000020ADF810004FF6FF70ADF81400002038
:10264000ADF81600ADF8120004A93348FEF784FC7B
:1026500000231A4603213048FFF78DF801A8FEF742
:10266000BAFF0A20ADF80C0001A92B48FEF707FFBE
:1026700001212948FFF792FA012211462648FEF768
:10268000E2FF00212448FFF757FA01212248FEF714
:10269000BFFF07B000BD0146022904D003290BD0BB
:1026A000042919D10FE04FF08042928C10B2002221
:1026B0004FF080439A8411E0184A128810B2002229
:1026C000164B1A800AE0144A2432128810B20022F3
:1026D000114B24331A8001E0002000BF00BF704777
:1026E0000D48103000880C481030008820F00100A0
:1026F00009491031088070474FF08040008A4FF040
:102700008040008A20F001004FF08041088270472D
:1027100000080140000C0140000800402404004073
:1027200008B501210820FEF7DFFA4FF44070ADF83C
:10273000000010208DF8030003208DF80200694688
:10274000F748FEF715F808BD10B5F548001D0068FC
:1027500020F0F000F249091D08600846006840F0CA
:10276000300008600120EF490860EF48D0F82401EC
:1027700008B9002010BD0120EA49091F0860FFF7D1
:1027800042FC0020E849C1F8A401E648803800680E
:1027900008B10020EEE70120FFF735FC0020E149F9
:1027A000091F08600120E5E710B5DD48001D00683D
:1027B00020F0F000DA49091D08600846006840F082
:1027C000300008600020D749091F0860D649C1F8C9
:1027D000A4010120FFF717FC0120D249091F08605E
:1027E000D149C1F8A401FFF70EFC10BD10B50024BB
:1027F000CB48001D006820F0F000C949091D0860A1
:102800000846006840F0800008600120C549086063
:10281000FFF7F9FB0120C449C1F8A001FFF7F3FB62
:102820000AE0601CC4B2322C03DDFFF7BDFF0020BC
:1028300010BD0120FFF7E7FBBA4880380068002888
:10284000EFD1B849091F08600120F1E710B5002059
:10285000B449091F0860B248001D006820F0F0006C
:10286000AF49091D08600846006840F03000086064
:102870000020AD49C1F8A4010120FFF7C4FB0120ED
:10288000A849091F0860FFF7BEFB0020A649C1F850
:10289000A00110BD10B50020A249091F0860A04882
:1028A000001D006820F0F0009D49091D08600846E1
:1028B000006840F03000086001209B49C1F8A40185
:1028C000FFF7A1FB01209749091F0860FFF79BFB59
:1028D00000209549C1F8A00110BD70B5044690488C
:1028E000001D006820F0F0008D49091D08600846B1
:1028F000006840F03000086000208A49091F086025
:10290000002516E0E009874908606006040E0120F2
:10291000FFF779FB01208449C1F8A001FFF773FBA1
:1029200000208049091F08600120FFF76CFB681C2C
:10293000C5B2082DE6DB70BD2DE9F04105460E4617
:1029400017469846FFF700FF10B90120BDE8F08157
:102950006906080EFFF7C1FFFFF748FF18B9FFF738
:1029600023FF0120F2E73046FFF7B7FFFFF73EFFF6
:1029700000240BE018F80400FFF7AFFFFFF736FF65
:1029800018B9FFF711FF0020E0E7641CBC42F1DB3F
:10299000FFF70AFF0020D9E770B50546002460481C
:1029A000001D006820F0F0005D49091D0860084620
:1029B000006840F080000860002617E000205949B8
:1029C000091F08600220FFF71EFB01205649C1F8CD
:1029D000A0016006040E53488038006808B1601CEE
:1029E000C4B20220FFF70FFB701CC6B2082EE5DB55
:1029F00015B1FFF72BFF01E0FFF74CFF204670BD3C
:102A00002DE9F04106460F4614461D46FFF79CFE91
:102A100010B90120BDE8F0817106080EFFF75DFFD7
:102A2000FFF7E4FE18B9FFF7BFFE0120F2E73846D2
:102A3000FFF753FFFFF7DAFEFFF786FE012101EBF8
:102A40004601C8B2FFF749FFFFF7D0FE0DE0012CA9
:102A500004D10020FFF7A0FF287003E00120FFF75A
:102A60009BFF28706D1C601EC4B2002CEFD1FFF7D5
:102A70009BFE0020CEE770B505460E460024FFF70A
:102A800063FE2846FFF729FF641CFFF7AFFE3046C0
:102A9000FFF723FF641CFFF7A9FEFFF755FE691C33
:102AA000C8B2FFF71AFF641CFFF7A0FE0020FFF773
:102AB00073FF0446FFF778FE204670BD2DE9F04114
:102AC0000746884615461E460024FFF73DFE384659
:102AD000FFF703FFFFF78AFE4046FFF7FEFEFFF712
:102AE00085FEFFF731FE791CC8B2FFF7F6FEFFF74F
:102AF0007DFE00BF0DE0681EA04204D00120FFF75C
:102B00004BFF305503E00020FFF746FF3055601CB7
:102B1000C4B2AC42EFDBFFF747FE2046BDE8F081D0
:102B2000000C0140A4812142008021422DE9F041A6
:102B300080460D4616461F460024FFF705FE404618
:102B4000FFF7CBFEFFF752FE2846FFF7C6FEFFF762
:102B50004DFE00BF06E0385DFFF7BFFEFFF746FE03
:102B6000601CC4B2B442F6DBFFF71EFE0120BDE8D4
:102B7000F08170B505460E46144631462846FFF7EB
:102B80007AFF2070012070BD37B504460D4602ABB8
:102B9000012229462046FFF7C9FF3EBD2DE9F84333
:102BA0000746884614461D46089E6A4641463846F2
:102BB000FFF7DFFF28B3601CFF2101FA00F0C4F12A
:102BC00008012944491EFF220A41104300F0FF0971
:102BD000C5F1080006FA00F0C6B2C4F107000641CC
:102BE0009DF8000000EA090000909DF800003043C5
:102BF00000909DF8002041463846FFF7C5FFBDE82C
:102C0000F8830020FBE7F8B506460F4614461D463C
:102C10006A4639463046FFF7ACFF2DB10120A0408F
:102C20009DF80010084305E00120A0409DF8001029
:102C300021EA0000C0B200909DF8002039463046DD
:102C4000FFF7A2FFF8BD00001FB501210846FEF7FF
:102C50004BF801210420FEF747F84FF48050ADF8FF
:102C60000C0048208DF80F0003A91248FDF780FDE5
:102C70000C210020FDF792FE4FF4805001900020BF
:102C80008DF808000C208DF8090001208DF80A004D
:102C900001A8FDF78DFC28208DF8000002208DF89A
:102CA000010001208DF802008DF803006846FDF751
:102CB00008FC1FBD0008014030B5014601F01F04AB
:102CC000C1F34513CA0AE50205EB43151544A8B242
:102CD00030BD2DE9F04706460F4690469A4600243F
:102CE00045464FEA4800C0F103094AE07A1991B21B
:102CF000321990B2524600F0B0FE7A1991B2321BEE
:102D000090B2524600F0A9FE7A1B91B2321990B2ED
:102D1000524600F0A2FE7A1B91B2321B90B252468C
:102D200000F09BFE3A1991B2721990B2524600F02F
:102D300094FE3A1991B2721B90B2524600F08DFE89
:102D40003A1B91B2721990B2524600F086FE3A1BBD
:102D500091B2721B90B2524600F07FFEB9F1000FA3
:102D600005DA042000FB049000F1060907E0601B6F
:102D7000042101FB009000F10A09681E85B2601C65
:102D800084B2AC42B2DBAC4237D17A1991B232197B
:102D900090B2524600F061FE7A1991B2321990B2A7
:102DA000524600F05AFE7A1B91B2321990B2524646
:102DB00000F053FE7A1B91B2321B90B2524600F0E3
:102DC0004CFE3A1991B2721990B2524600F045FE8B
:102DD0003A1991B2721B90B2524600F03EFE3A1B75
:102DE00091B2721990B2524600F037FE3A1B91B27E
:102DF000721B90B2524600F030FEBDE8F0872DE91C
:102E0000FF4F83B0804689464946404600F01BFE8E
:102E10000598A0EB08050698A0EB0906002D02DB3B
:102E20000120029003E04FF0FF3002906D42002E2F
:102E300002DB0120019003E04FF0FF300190764269
:102E40004FEA450A4FEA460BB54219DDABEB0504E4
:102E5000002712E049464046109A00F0FEFD002C83
:102E600005DBA4EB0A04019848441FFA80F95C448E
:102E7000029840441FFA80F87F1CAF42EADD18E058
:102E8000AAEB0604002712E049464046109A00F0DB
:102E9000E4FD002C05DBA4EB0B04029840441FFA70
:102EA00080F85444019848441FFA80F97F1CB742C7
:102EB000EADD07B0BDE8F08F2DE9F84305460C4682
:102EC00016461F46DDF820804EF67D700090A8194A
:102ED00082B2234621462846FFF791FF42F665104D
:102EE00004F1010CBC441FFA8CF305EB060CACF1A9
:102EF000010C1FFA8CF204F1010C1FFA8CF105EBA6
:102F0000060CACF1010C00901FFA8CF0FFF777FF74
:102F100042F665100090E01983B2A81982B2E01958
:102F200081B22846FFF76BFF4EF67D700090E019E6
:102F300083B22A4621462846FFF761FF04F1010CBF
:102F4000BC44ACF1020C1FFA8CF305F1010CB44443
:102F5000ACF1020C1FFA8CF204F1010C1FFA8CF197
:102F600005F1010C1FFA8CF0CDF80080FFF747FF48
:102F7000BDE8F8832DE9F84305460C4616461F4682
:102F8000DDF82080B8F1000F39D14EF67D70009049
:102F9000A81982B2234621462846FFF730FF42F6A1
:102FA000651004F1010CBC441FFA8CF305EB060C10
:102FB000ACF1010C1FFA8CF204F1010C1FFA8CF138
:102FC00005EB060CACF1010C00901FFA8CF0FFF73A
:102FD00016FF42F665100090E01983B2A81982B27C
:102FE000E01981B22846FFF70AFF4EF67D70009087
:102FF000E01983B22A4621462846FFF700FFB8F1C0
:10300000010F39D142F665100090A81982B223460B
:1030100021462846FFF7F3FE4EF67D7004F1010CC1
:10302000BC441FFA8CF305EB060CACF1010C1FFA43
:103030008CF204F1010C1FFA8CF105EB060CACF1DB
:10304000010C00901FFA8CF0FFF7D9FE4EF67D7050
:103050000090E01983B2A81982B2E01981B2284623
:10306000FFF7CDFE42F665100090E01983B22A46C4
:1030700021462846FFF7C3FEB8F1020F39D14FF6BB
:10308000FF700090A81982B2234621462846FFF718
:10309000B6FE4FF6FF7004F1010CBC441FFA8CF32E
:1030A00005EB060CACF1010C1FFA8CF204F1010CDB
:1030B0001FFA8CF105EB060CACF1010C00901FFA25
:1030C0008CF0FFF79CFE4FF6FF700090E01983B282
:1030D000A81982B2E01981B22846FFF790FE4FF698
:1030E000FF700090E01983B22A4621462846FFF778
:1030F00086FEBDE8F883F8B504460D4616461F4621
:1031000044F208202B463246294600902046FFF71D
:1031100076FE48F210406A1C93B291B2621C009095
:1031200090B23246FFF76BFE44F208203B4622463F
:10313000294600902046FFF762FE48F21040631CCB
:103140009AB26B1C99B2631C009098B23B46FFF791
:1031500056FE4FF6FF703B463246394600902046F9
:10316000FFF74DFE4FF6FF703B4632462946009072
:103170003046FFF744FEF8BDF8B506460F46144644
:103180001D464FF6FF703B462246394600903046BA
:10319000FFF735FE4FF6FF702B463246394600905A
:1031A0003046FFF72CFE48F210406A1E93B291B2EF
:1031B000721C009090B22246FFF721FE44F20820D4
:1031C0002B462246294600903046FFF718FE48F26B
:1031D0001040631E9AB27B1C99B2631E009098B295
:1031E0002B46FFF70CFE44F208202B4622463946B8
:1031F00000902046FFF703FEF8BD2DE9F84F074683
:10320000884693469A46DDF828900097B3E099F8EF
:10321000000080283DDA99F800600D2E05D1009F4E
:1032200008F110001FFA80F830E0202E03DDA6F12F
:10323000200086B200E00026002422E000251CE0E9
:1032400004EB0610FE49085C80212941084040B18A
:1032500008EB040291B27A1990B25A4600F0FDFBD5
:1032600009E0D34507D008EB040291B27A1990B275
:10327000524600F0F2FB681CC5B2082DE0DB601C72
:10328000C4B2102CDADB07F1080087B209F101099A
:1032900071E0002668E006EB0610EA4911F810001C
:1032A00099F8001088425DD106EB0610E54901EB64
:1032B0004000407899F80110884253D100244FE033
:1032C000002520E006EB0610DE4901EB4000801CE3
:1032D00010F8141080202841014041B108EB04028D
:1032E00091B27A1990B25A4600F0B7FB09E0D34583
:1032F00007D008EB040291B27A1990B2524600F05E
:10330000ACFB681CC5B2082DDCDB002524E006EB15
:103310000610CC4901EB4000801C012101EB440167
:10332000405C80212941084048B108EB040291B279
:103330007A19083290B25A4600F08FFB0AE0D34562
:1033400008D008EB040291B27A19083290B25246C2
:1033500000F083FB681CC5B2082DD8DB601CC4B22A
:10336000102CADDB701C86B2322E94DB09F1020901
:1033700007F1100087B299F8000000287FF447AFEA
:10338000BDE8F88F2DE9F041074688461546202D07
:1033900003DDA5F12000C5B200E00025002422E0F5
:1033A00000261CE004EB0510A549085C8021314192
:1033B000084048B108EB040291B2BA1990B24FF438
:1033C000784200F04AFB08E008EB040291B2BA1917
:1033D00090B24EF67D7200F040FB701CC6B2082E13
:1033E000E0DB601CC4B2102CDADBBDE8F08110B564
:1033F0000246012000E050430B1EA1F10104E1B29E
:10340000F9D110BD2DE9F0470646894690461D4684
:103410004FF0000A00242AE0281B401EC1B20A20F7
:10342000FFF7E5FF98FBF0F00A2190FBF1F201FBBA
:103430001200C7B2BAF1000F0DD1681EA0420ADD1A
:103440003FB9082101FB046020224946FFF79AFF9B
:103450000BE04FF0010A07F13001CAB2082101FB6D
:1034600004604946FFF78EFF00BF601CC4B2AC4247
:10347000D2DBBDE8F0872DE9F05F0646884693462B
:103480009A46DDF82890E9E099F80000802835DABE
:1034900099F80070202F03DDA7F1200087B200E02B
:1034A0000027002522E000241CE005EB07106449FA
:1034B000095C80202041014041B108EB050291B236
:1034C000321990B25A4600F0C8FA09E0D34507D045
:1034D00008EB050291B2321990B2524600F0BDFAE3
:1034E000601CC4B2082CE0DB681CC5B2102DDADB0E
:1034F00009F1010906F1080086B2AFE000279EE05D
:1035000007EB870000EB47104F4911F8100099F8BE
:10351000001088427CD107EB870000EB47104A4936
:1035200001EB4000407899F801108842F2D1002563
:1035300080E0002423E007EB870000EB47104249BE
:1035400001EB4000801C05EB4501405C80212141DE
:10355000084040B108EB050291B2321990B25A46C8
:1035600000F07BFA09E0D34507D008EB050291B2E1
:10357000321990B2524600F070FA601CC4B2082CA6
:10358000D9DB002426E007EB870000EB47102E492B
:1035900001EB4000801C05EB4501491C405C80218B
:1035A0002141084048B108EB050291B232190832B6
:1035B00090B25A4600F051FA0AE0D34508D008EB21
:1035C000050291B23219083290B2524600F045FA23
:1035D000601CC4B2082CD6DB002427E007EB870070
:1035E00000EB4710184901EB4000801C05EB45013A
:1035F000891C405C80212141084050B108EB050244
:1036000091B23219103290B25A4600F026FA0BE00D
:1036100013E0D34508D008EB050291B232191032FD
:1036200090B2524600F019FA601CC4B2082CD5DBE7
:10363000681CC5B2182DFFF67CAF781C87B205E078
:103640008E8F0008009D0008E8A30008142FFFF6E5
:1036500057AF09F1020906F1180086B299F8000087
:1036600000287FF411AFBDE8F09F2DE9F05F074619
:10367000884692469946002531E000242BE01A49FD
:103680000A9801EBC01000EB850010F804B000268A
:103690001DE08020304100EA0B0050B108EB05022C
:1036A00091B207EBC402324490B2524600F0D5F911
:1036B0000BE0CA4509D008EB050291B207EBC40242
:1036C000324490B24A4600F0C8F9701CC6B2082EC7
:1036D000DFDB601CC4B2042CD1DB681CC5B2202D1A
:1036E000CBDBBDE8F09F00007F95000808B5012105
:1036F0000820FDF7F9FA1820ADF8000003208DF836
:10370000020010208DF803006946EE48FDF730F8FE
:103710001021EC48FDF7DBF801210420FDF7E4FA65
:1037200048F20C00ADF8000003208DF802001020D4
:103730008DF803006946E448FDF71AF8E34880690C
:1037400040F00100E1498861E148406820F0E06014
:10375000DF4948600846406840F08060486008BD26
:103760000021082115E000F0800222B10822D64B8A
:1037700010331A6003E00822D34B14331A6004227A
:10378000D14B14331A601B1F1A604206100E4A1EDA
:10379000D1B20029E7DC704710B504460820C949BA
:1037A000143108602046FFF7DBFF10BD10B504465A
:1037B0000820C449103108602046FFF7D1FF10BD32
:1037C00010B504460820BF49103108602012FFF7E9
:1037D000C7FFE0B2FFF7C4FF10BD30B505460C4689
:1037E0002846FFF7D9FF2046FFF7E0FF30BD10B5B0
:1037F0004FF40040B449143108606420FEF727FC00
:103800004FF40040B049103108603220FEF71FFC31
:1038100010BD10B5FFF76AFFFFF7E9FF1120FFF7B2
:10382000BBFF7820FEF713FC2120FFF7B5FF212016
:10383000FFF7B2FFB120FFF7AFFF0520FFF7B6FF9C
:103840003A20FFF7B3FF3A20FFF7B0FFB220FFF7AF
:10385000A3FF0520FFF7AAFF3A20FFF7A7FF3A20B2
:10386000FFF7A4FFB320FFF797FF0520FFF79EFFA8
:103870003A20FFF79BFF3A20FFF798FF0520FFF75C
:1038800095FF3A20FFF792FF3A20FFF78FFFB42011
:10389000FFF782FF0320FFF789FFC020FFF77CFFBF
:1038A0006220FFF783FF0220FFF780FF0420FFF76D
:1038B0007DFFC120FFF770FFC020FFF777FFC22018
:1038C000FFF76AFF0D20FFF771FF0020FFF76EFF83
:1038D000C320FFF761FF8D20FFF768FF6A20FFF725
:1038E00065FFC420FFF758FF8D20FFF75FFFEE2034
:1038F000FFF75CFFC520FFF74FFF0E20FFF756FFD5
:10390000E020FFF749FF1020FFF750FF0E20FFF7E0
:103910004DFF0220FFF74AFF0320FFF747FF0E206D
:10392000FFF744FF0720FFF741FF0220FFF73EFFAC
:103930000720FFF73BFF0A20FFF738FF1220FFF7B1
:1039400035FF2720FFF732FF3720FFF72FFF00203A
:10395000FFF72CFF0D20FFF729FF0E20FFF726FFB2
:103960001020FFF723FFE120FFF716FF1020FFF7DD
:103970001DFF0E20FFF71AFF0320FFF717FF03209C
:10398000FFF714FF0F20FFF711FF0620FFF70EFFD0
:103990000220FFF70BFF0820FFF708FF0A20FFF7C0
:1039A00005FF1320FFF702FF2620FFF7FFFE36205A
:1039B000FFF7FCFE0020FFF7F9FE0D20FFF7F6FEF3
:1039C0000E20FFF7F3FE1020FFF7F0FE3A20FFF77E
:1039D000E3FE0520FFF7EAFE3620FFF7DDFEA82014
:1039E000FFF7E4FE2920FFF7D7FE10BDF0B504462F
:1039F0000D4616461F462A20FFF7CEFE0020FFF791
:103A0000D5FE611CC8B2FFF7D1FE0020FFF7CEFE45
:103A1000711CC8B2FFF7CAFE2B20FFF7BDFE0020C5
:103A2000FFF7C4FE05F11A01C8B2FFF7BFFE002080
:103A3000FFF7BCFE07F11A01C8B2FFF7B7FE2C2052
:103A4000FFF7AAFEF0BD30B504460D462B462246D0
:103A500029462046FFF7CAFF30BD70B504460D4623
:103A60001646681C83B2601C82B229462046FFF7C6
:103A7000BDFF3046FFF7A4FE70BD60B505460E469B
:103A800031462846FFF7DFFFE0B2FFF78FFE204602
:103A900060BD70B506464F239F2200210846FFF700
:103AA000A5FF2C20FFF778FE002408E0002503E0A6
:103AB0003046FFF785FE6D1C502DF9D3641CA02CF9
:103AC000F4D370BD000C014000080140001002401A
:103AD000000001400146002901DA484200E00846A2
:103AE000704700B503460A46002B07DD0020B249A7
:103AF00008600120B149C1F8B00106E00120AE49DB
:103B000008600020AD49C1F8B0011846FFF7E2FF98
:103B1000AB490880002A08DD0120A7490831086068
:103B20000020A649C1F8B80107E00020A2490831E9
:103B300008600120A149C1F8B8011046FFF7CAFF8B
:103B40009F490C39088000BD70B505469D4928463F
:103B500004F0F4FF08D39C49284605F0EFF803D39E
:103B60009A48007801280ED1012400209249091DAD
:103B700008609249C1F8BC018F490860091F0860BC
:103B80009349086000E00024204670BD03461846B3
:103B9000884200DD0846904200DA104670472DE961
:103BA000FF5F044689468B480390C002029004EBF5
:103BB0000901484204F096FF874908608748006879
:103BC00004F0C4FD0746864A864B04F0E5FA054634
:103BD00004F0A8F8814908607F48006804F0B6FD49
:103BE0007F4A814BCDE9000104F0D6FA05460E4626
:103BF0007A48006804F0AAFD07462A46334604F0D6
:103C0000C3F8824604F08EF87449086008460168DB
:103C10007648006804F0C6FD74490860744973482A
:103C2000006805F08BF802D271487049086071494C
:103C30006E48006804F082FF02D26E486B4908604B
:103C40006A480299006804F0ADFF074663480068BF
:103C500080F000463046039904F0A4FF054639463B
:103C600005F0A8F86449086064480068FFF76CFF35
:103C7000012803D055480078012802D100205B4973
:103C800008605D48006804F0F1FE04B0BDE8F09FF4
:103C90002DE9FE4F04460D46594E5A4F002120464D
:103CA00005F07DF802902946002005F083F8019088
:103CB0003946019804F076FF86F0004B0090584694
:103CC000029904F06FFF8246009905F073F881466F
:103CD00004F0CCFE80464046BDE8FE8F10B5FEF7EE
:103CE000A3FB0446012C07D13848007808B901200D
:103CF00000E000203549087010BD10B503F0B0F8A1
:103D0000414800683D4908604049B1F9020004F0AB
:103D1000E9FE3F49086010BD2DE9F0413D480068CB
:103D2000002846D14FF480503B4908603B4800785A
:103D300008B9012000E0002038490870FFF7DDFFD6
:103D40000220FEF7A8FC364908600420FEF7A3FC19
:103D500040423449086031480078012802D10020EF
:103D6000BDE8F081FFF7BAFF2948016823480068E1
:103D7000FFF78EFF04462B48016829480068FFF7CB
:103D80000EFF054667196619274A51423846FFF764
:103D9000FDFE0746244A51423046FFF7F7FE06462D
:103DA00016480068FFF7D0FE18B931463846FFF7CD
:103DB00098FE0020D4E70000B48121420080214217
:103DC000402C0140000020C20000204214000020CE
:103DD000B40122420000C8435400002058000020D3
:103DE0009A9999999999E93F9999C93F5C0000205E
:103DF00000401C4600401CC650000020200000204F
:103E00000000B4439A999940A00000208C00002043
:103E10002400002030012142140401404C00002005
:103E2000180000201C0000200CE5FFFF38B50446F8
:103E3000FB4890F82400C0B114B10220009001E0CA
:103E400000200090F64A1268D17BF54A526810783B
:103E50006B460122FEF770FD10B14FF0FF3038BD08
:103E60009DF80010EE48417423E0ED48807A10B9C7
:103E70004FF0FF30F3E724B1E948407C08B100205F
:103E8000EDE714B10120009001E000200090E44A29
:103E90001268D17BE24A526810786B460122FEF725
:103EA0004BFD10B14FF0FF30D9E79DF80010DC4812
:103EB00041740020D3E738B5002419E0D8480068E1
:103EC000C07AA04204D0D6480068407DA04200D10C
:103ED0000CE0D349496808786B4601222146FEF779
:103EE0008FFD10B14FF0FF3038BD00BF601CC4B271
:103EF000CB4840680079A042E0DC0020F4E770B5D0
:103F000004460D46C6480068C07AA04204D0C448A2
:103F10000068407DA04202D14FF0FF3070BDC04824
:103F200040680079A04202DC4FF0FF30F6E7BC4960
:103F3000496808782B4601222146FEF761FDEDE72E
:103F400038B50446B64890F82300A04201D10020BD
:103F500038BD14B13020009001E000200090B0483E
:103F6000807C20B19DF8000040F002000090AC4839
:103F700090F8220020B19DF8000040F080000090F1
:103F8000A74A1268117DA64A526810786B46012232
:103F9000FEF7D2FC10B14FF0FF30D9E7A04880F80F
:103FA00023400020D4E738B5044604F0700010B177
:103FB0000120009005E014B10020009001E04020B5
:103FC0000090974A1268917C954A526810786B4627
:103FD0000122FEF7B1FC20B1002191488172481EF8
:103FE00038BD9DF8000020F040018D48017300208D
:103FF000009004F0400020B99DF8000040F004005B
:10400000009004F0200020B99DF8000040F002006C
:10401000009004F0100020B99DF8000040F001006D
:10402000009004F0080020B99DF8000040F038002E
:1040300000907B4A1268D17C794A526810786B46AE
:104040000122FEF779FC20B1002175488172481EDB
:10405000C6E724B1082C02D00020FFF771FF70489A
:104060008472002101753220FDF7F1FF0020B7E7CF
:1040700038B504466A48807CA04201D1002038BD92
:10408000002C46D0664A12681179654A5268107849
:104090006B460122FEF7B4FC10B14FF0FF30EEE7A3
:1040A0009DF8000020F0200000905D4A1268117910
:1040B0005B4A526810786B460122FEF73DFC10B156
:1040C0004FF0FF30DBE70320FDF7C1FF0220009037
:1040D000534890F8220020B19DF8000040F0800085
:1040E00000904F4890F8230020B19DF8000040F068
:1040F000300000904A4A1268117D494A526810788F
:104100006B460122FEF718FC002851D04FF0FF301B
:10411000B5E7434A12681179414A526810786B46F4
:104120000122FEF76DFC10B14FF0FF30A7E73C48CD
:10413000807A00F0010028B19DF8000040F02000D6
:10414000009004E09DF8000020F020000090344A28
:1041500012681179324A526810786B460122FEF7D4
:10416000EBFB10B14FF0FF3089E70320FDF76FFF45
:104170002B4890F8220010B18020009001E0002030
:104180000090274890F8230020B19DF8000040F0EF
:1041900030000090224A1268117D214A526810783E
:1041A0006B460122FEF7C8FB10B14FF0FF3066E707
:1041B0001B488474002062E708B51948807A10B95A
:1041C0004FF0FF3008BD00200090154A1268D17BE7
:1041D000134A526810786B460122FEF7ADFB10B10E
:1041E0004FF0FF30EEE70E4A126851790C4A5268E0
:1041F00010786B460122FEF79FFB10B14FF0FF30A5
:10420000E0E7074A12681179054A526810786B4650
:104210000122FEF791FB28B14FF0FF30D2E70000FA
:1042200060000020F74890F82400002850D00C20AF
:104230000090F44A12681179F24A526810786B467D
:104240000122FEF779FB10B14FF0FF30BAE7C02032
:104250000090EC48807A00F0010020B19DF8000049
:1042600040F020000090E74A12681179E54A526850
:1042700010786B460122FEF75FFB10B14FF0FF3064
:10428000A0E7E048407C10B10220009001E000204F
:104290000090DC4A1268D17BDA4A526810786B468B
:1042A0000122FEF749FB10B14FF0FF308AE70020F2
:1042B0000090D44A12685179D24A526810786B46FD
:1042C0000122FEF739FB002852D04FF0FF3079E78A
:1042D00004200090CB4A12681179CA4A52681078BB
:1042E0006B460122FEF728FB10B14FF0FF3069E763
:1042F000C448807C20B9C348807A00F0010010B91E
:104300004020009001E060200090BE4A12681179C0
:10431000BC4A526810786B460122FEF70DFB10B1C3
:104320004FF0FF304EE7B748407C10B101200090BD
:1043300001E000200090B34A1268D17BB14A526874
:1043400010786B460122FEF7F7FA10B14FF0FF30FC
:1043500038E7AC4A12685179AA4A52681078A94BDA
:1043600010330122FEF7E8FA10B14FF0FF3029E7D1
:10437000002027E770B50446002624F00104A14878
:1043800090F8240008B1002070BD9E48807A10B9D2
:104390004FF0FF30F8E79B48057C807A2040994930
:1043A00008740846007CA04202D04FF0FF3600E0BF
:1043B000002614B99348007D18B10120FFF736FD9F
:1043C00002E00020FFF732FD3CB1FFF7F5FE20B11F
:1043D0008C4805744FF0FF30D6E73046D4E738B547
:1043E00004468848807A10B94FF0FF3038BDBC2CA5
:1043F00002DB0120009015E0622C02DB022000901D
:1044000010E02A2C02DB032000900BE0142C02DBCE
:104410000420009006E00A2C02DB0520009001E059
:10442000062000907748C07A9DF80010884201D19C
:104430000020DBE7734A12689178724A526810785C
:104440006B460122FEF778FA10B14FF0FF30CDE74E
:104450009DF800106B48C1720020C7E738B50446CC
:10446000282C02DD4FF0FF3038BDDCB90020FFF70B
:1044700067FD00208DF8000007208DF80100614ADB
:104480001268917C5F4A526810786B460222FEF7F0
:1044900053FA10B14FF0FF30E6E70021594801759B
:1044A0000020E1E70120FFF74BFD20208DF8000000
:1044B000012C06D100208DF801000520FFF78FFFA9
:1044C00017E0052C06DC01208DF801000520FFF720
:1044D00086FF0EE0142C06DC02208DF801000A2075
:1044E000FFF77DFF05E003208DF801001420FFF7A2
:1044F00076FF9DF80100072101EB8010C0B28DF816
:104500000100404A1268917C3E4A526810786B461E
:104510000222FEF711FA10B14FF0FF30A4E7082194
:104520003848817200210173012101750020FFF7D5
:1045300021FF002098E738B504463248807A10B948
:104540004FF0FF3038BD2F4890F8240010B14FF0E5
:10455000FF30F7E72B48007D50B134B1282C04DC44
:10456000E0B2FFF77BFF0020ECE70020FFF776FFCB
:10457000042C01DA042404E0B4F57A7F01DD4FF461
:104580007A744FF47A7090FBF4F0401EC0B2009041
:104590001C4A126851781B4A526810786B460122F7
:1045A000FEF7CAF910B14FF0FF30CBE79DF80000DD
:1045B000401C4FF47A7191FBF0F081B21148C18137
:1045C0000146C9894810FFF70AFF0020BAE738B54D
:1045D00004460C48807A10B94FF0FF3038BD022CE9
:1045E00006D0042C07D0082C08D0102C0FD10BE0DB
:1045F000002000900EE0082000900BE010200090BA
:1046000008E00000600000201820009002E04FF059
:10461000FF30E3E700BFF948407A9DF80010B0EBA7
:10462000E10F01D10020D9E7F44A1268D179F34AA9
:10463000526810786B460122FEF77EF910B14FF0F8
:10464000FF30CBE79DF80000C110EC48417200201C
:10465000C4E738B50446E948807A10B94FF0FF3016
:1046600038BDFA2C09D0B4F5FA7F09D0B4F57A7FB9
:1046700009D0B4F5FA6F0CD108E0002000900BE0EF
:104680000820009008E01020009005E0182000901D
:1046900002E04FF0FF30E3E700BFD848007A9DF812
:1046A0000010B0EBE10F01D10020D9E7D34A126826
:1046B0009179D24A526810786B460122FEF73CF994
:1046C00010B14FF0FF30CBE79DF80000C010CB4990
:1046D00008720020C4E71CB580208DF80000C74A8E
:1046E0001268917CC54A526810786B460122FEF729
:1046F00023F910B14FF0FF301CBD6420FDF7A7FC7B
:1047000000208DF80000BD4A1268917CBB4A5268B7
:1047100010786B460122FEF70FF910B14FF0FF3011
:10472000EAE7B64A1268917DB44A526810786B463F
:104730000622FEF765F910B14FF0FF30DCE79DF877
:104740000500C007400F9DF8031001F0010140EA89
:1047500041009DF8011001F0010140EA010494B10B
:10476000012C03D10121A548C17431E0022C03D1F1
:104770000021A248C1742BE02146A1A002F0EAFC6E
:104780004FF0FF30B8E79D4A1268D1789B4A5268D3
:1047900010786B460122FEF733F910B14FF0FF306D
:1047A000AAE79DF8000000F00F042CB99E4802F023
:1047B000D1FC4FF0FF309FE7042C06D19BA002F004
:1047C000C9FC01218D48C17402E000218B48C174ED
:1047D000FF218A488172FF2088490872FF2187489B
:1047E0004172C1724FF6FF71C181FF210174817462
:1047F0000121017380F82210002180F823104175F7
:1048000001751630016041608160163880F824100F
:1048100080F82510C1844FF4FA60FFF71AFF10B139
:104820004FF0FF3068E70220FFF7D1FE10B14FF0E4
:10483000FF3061E72A20FFF7D2FD10B14FF0FF30C3
:104840005AE73220FFF777FE10B14FF0FF3053E701
:104850000020FFF78FFD10B14FF0FF304CE7002034
:10486000FFF706FC10B14FF0FF3045E70020FFF7DF
:104870009AFB002040E770477CB504460D465F4830
:10488000807A00F0700010B94FF0FF307CBD5B4AB9
:104890001268117B594A526810786B460622FEF75F
:1048A000AFF810B14FF0FF30F0E79DF801009DF830
:1048B000001040EA012000B220809DF803009DF81E
:1048C000021040EA012000B260809DF805009DF8CA
:1048D000041040EA012000B2A08015B12846FFF77D
:1048E000CAFF0020D2E77CB504460D464348807AD3
:1048F00000F0080010B94FF0FF307CBD3F4A12684D
:10490000517B3E4A526810786B460622FEF778F8D3
:1049100010B14FF0FF30F0E79DF801009DF8001056
:1049200040EA012000B220809DF803009DF80210AB
:1049300040EA012000B260809DF805009DF8041057
:1049400040EA012000B2A08015B12846FFF793FF8E
:104950000020D2E72DE9FE4F05460C462748807A15
:1049600018B94FF0FF30BDE8FE8F244A1268917BE2
:10497000224A5268107802AB0222FEF741F810B1C9
:104980004FF0FF30EFE79DF809009DF8081040EA6E
:10499000012006B214B12046FFF76DFF17494968A0
:1049A000C88804F0B7F8154901904968B1F90800C2
:1049B00004F098F88346304604F094F85946009085
:1049C00004F0F8F98246019903F05AFF81461F4925
:1049D00003F0E8FE80464FF08F4104F0E3F807460D
:1049E00004F044F828600020BDE710B588B0044604
:1049F0001CB94FF0FF3008B010BD29E06000002066
:104A0000556E737570706F7274656420736F667421
:104A1000776172652070726F647563742072657659
:104A20002025642E0A000000A0B6000848616C66CC
:104A30002073656E73697469766974792070617228
:104A40007420666F756E642E0D0A000000000C4223
:104A5000206830B9606820B9A06810B9002008B09B
:104A600010BDFA494968087806AB03221146FDF7E4
:104A7000C7FF10B14FF0FF30F1E79DF81800082193
:104A800001EB201000F00F00ADF800009DF81900B8
:104A900001EB201000F00F00ADF802009DF81A00A5
:104AA00001EB201000F00F00ADF804002068410079
:104AB000BDF90000403091FBF0F000B2ADF81000FD
:104AC00060684100BDF90200403091FBF0F000B297
:104AD000ADF81200A0684100BDF90400403091FB20
:104AE000F0F000B2ADF81400D8494968087806AB78
:104AF00006221146FDF784FF10B14FF0FF30AEE7FC
:104B00009DF819009DF8181040EA012000B2ADF898
:104B100008009DF81B009DF81A1040EA012000B221
:104B2000ADF80A009DF81D009DF81C1040EA012018
:104B300000B2ADF80C00BDF81000BDF80810084434
:104B400000B2ADF81000BDF81200BDF80A1008441C
:104B500000B2ADF81200BDF81400BDF80C10084406
:104B600000B2ADF81400BDF81000000A8DF818006E
:104B7000BDF81000C0B28DF81900BDF81200000A8F
:104B80008DF81A00BDF81200C0B28DF81B00BDF8F8
:104B90001400000A8DF81C00BDF81400C0B28DF896
:104BA0001D00AA494968087806AB06221146FDF7A0
:104BB000C3FE10B14FF0FF3051E700204FE7014630
:104BC000A248007A30B1012807D0022809D0032872
:104BD0000FD10AE0FA2008800EE04FF4FA70088046
:104BE0000AE04FF47A70088006E04FF4FA6008801B
:104BF00002E00020088000BF00BF0020704701468F
:104C00009248407A30B1012807D0022808D0032802
:104C10000CD108E0022008700BE00420087008E0C6
:104C20000820087005E01020087002E04FF0FF3007
:104C3000704700BF8548C07C18B108784006000E58
:104C400008700020F4E701468048C07A082817D28F
:104C5000DFE800F01704070A0D101318BC200880C5
:104C600013E06220088010E02A2008800DE0142064
:104C700008800AE00A20088007E00520088004E098
:104C800000BF00BF0020088000BF00BF00207047A9
:104C900001466E4890F8240010B14FF0FF30704785
:104CA0006A48C08908800020F9E701460020088092
:104CB000401E704701464FF0FF3070470146634881
:104CC000007A30B1012807D0022808D003280CD17F
:104CD00008E05F4808600BE05E48086008E05E4856
:104CE000086005E05D48086002E04FF0FF30704763
:104CF00000BF0020FBE701465448407A30B101284C
:104D000008D002280AD0032810D10BE04FF48040CD
:104D100008800EE041F69C7008800AE04FF4805055
:104D2000088006E04FF40060088002E04FF0FF309A
:104D3000704700BF4548C07C10B10888401008800B
:104D40000020F5E701464148007C087000207047CC
:104D500001463E48807A10B10120087001E0002031
:104D600008700020704738B504463848807A10B97A
:104D70004FF0FF3038BD354A1268117C334A526813
:104D800010786B460222FDF73BFE10B14FF0FF306A
:104D9000F0E79DF801009DF8001040EA012000B204
:104DA00020800020E6E72DE9FE4F07468846924620
:104DB0001D46DDF830B000260024244890F8240079
:104DC00010B1601EBDE8FE8F002028701F48807A59
:104DD00010B94FF0FF30F5E71C48007C10B94FF0D8
:104DE000FF30EFE71948007C00F0400008B1B01C2C
:104DF000C6B21648007C00F0200008B1B01CC6B254
:104E00001248007C00F0100008B1B01CC6B20F4878
:104E1000007C00F0080008B1B01DC6B20B4A126851
:104E2000917A0A4A526810786B460222FDF7E8FD33
:104E300010B14FF0FF30C5E79DF801009DF800105C
:104E400040EA0129B1450BDA0020BBE760000020F1
:104E50000000034300008342333303423333834172
:104E6000FC4840684088B9EB600F17DDF94A1268CA
:104E7000517CF84A526810786B460122FDF7C0FD5C
:104E800010B14FF0FF309DE79DF8000000F01000DA
:104E900020B1FFF791F96FF0010093E75046FFF75B
:104EA000EAFCEC4A1268D17AEA4A526810786B46FA
:104EB0003246FDF7A5FD10B14FF0FF3082E799FBB8
:104EC000F6F0401E8BF8000000202870B4422AD073
:104ED000E048007C00F0080028B3601C1DF80000CA
:104EE0001DF8041040EA012000B2A8F80000E01C00
:104EF0001DF80010A01C1DF8000041EA002000B2BF
:104F0000A8F80200601D1DF80010201D1DF800000B
:104F100041EA002000B2A8F80400287840F0080018
:104F20002870A01D84B2B44213D0CA48007C00F09F
:104F3000400070B1601C1DF800001DF8041040EA2C
:104F4000012000B23880287840F040002870A01C72
:104F500084B2B44213D0BF48007C00F0200070B18E
:104F6000601C1DF800001DF8041040EA012000B28A
:104F70007880287840F020002870A01C84B2B442C9
:104F800013D0B448007C00F0100070B1601C1DF814
:104F900000001DF8041040EA012000B2B880287813
:104FA00040F010002870A01C84B200200AE7F8B579
:104FB00004460F461646A74890F8240010B94FF053
:104FC000FF30F8BDA348807A10B94FF0FF30F8E702
:104FD000A04A1268917A9F4A526810786B46022262
:104FE000FDF70EFD10B14FF0FF30EAE79DF801002C
:104FF0009DF8001040EA0125A54203DA0020307038
:10500000401EDEE7934840684088B5EB600F17DD2F
:10501000904A1268517C8F4A526810786B46012280
:10502000FDF7EEFC10B14FF0FF30CAE79DF800002D
:1050300000F0100020B1FFF7BFF86FF00100C0E7EB
:10504000E2B2844B1B68D97A824B5B6818783B4686
:10505000FDF7D6FC10B14FF0FF30B2E795FBF4F04E
:10506000401E30700020ACE701467A4880F82210DC
:10507000002070477CB5054676494968087801AB41
:1050800004220D21FDF7BCFC08B107207CBD9DF872
:105090000700C0F301109DF8041001F0E00140EAA0
:1050A000E1008DF800009DF80700C0F381009DF835
:1050B000051001F0E00140EAE1008DF801009DF8E3
:1050C000070000F003009DF8061001F0E00140EA3F
:1050D000E1008DF8020000241CE01DF8040018B95E
:1050E000002045F8240013E05B4845F8240006E062
:1050F00055F82400594903F055FD45F824001DF8E2
:105100000400401EC0B20DF804000028F0D100BF1A
:10511000601CC4B2032CE0DB0020B7E72DE9FE4F92
:1051200006460F4600256846FFF7A4FF002442E02C
:1051300056F8240057F82410A0EB010ABAF1000F2A
:1051400001DB514601E0CAF10001084603F0CAFC48
:1051500083464FF08F4103F093FB80465DF82400B7
:10516000002103F04FFC16D05DF82410404603F0F8
:1051700087FB82464FF07E5103F01CFE814629F0EA
:10518000004A3748416A504603F0D8FD12D2012048
:10519000A04005430EE03248C169404603F0CEFC12
:1051A00005D32F48016A404603F0C8FD02D2012012
:1051B000A0400543641C032CBADB2846BDE8FE8FE3
:1051C0002DE9FC5F06460F4600252249496808780C
:1051D00001AB03220D21FDF713FC10B10720BDE840
:1051E000FC9F9DF8040000F01F008DF804009DF85E
:1051F000050000F01F008DF805009DF8060000F086
:105200001F008DF80600002462E056F8240057F8CD
:105210002410A0EB010BBBF1000F01DB594601E0AC
:10522000CBF10001084603F05DFC4FF08F41009088
:1052300003F026FB814601A8005DC0B30849086859
:1052400003F068FC83465946064803F019FB804684
:105250000FE00000600000207B14AE3E1D5A843F2A
:1052600090A9000800B04C45FE49404603F09AFC66
:10527000804601A8005D401EC0B201A90855002863
:10528000F2D14146484603F0FBFA83464FF07E5187
:1052900003F090FD82462AF0004BF348816958469E
:1052A00003F04CFD13D20120A04005430FE0FFE7BF
:1052B000ED480169484603F041FC05D3EA484169DD
:1052C000484603F03BFD02D20120A0400543641C88
:1052D000032C9ADB284682E72DE9F04F87B005467C
:1052E0000C46914601208DF8100000208DF8110029
:1052F000DE4A1268917CDD4A5268107804AB0222C3
:10530000FDF71AFB20B14FF0FF3007B0BDE8F08F7A
:10531000C820FCF79CFE00208DF81000D34A1268CC
:10532000D17BD24A5268107804AB0122FDF704FB0E
:1053300010B14FF0FF30E8E7CC4A12685179CB4A00
:105340005268107804AB0122FDF7F6FA10B14FF065
:10535000FF30DAE7C54A1268917CC44A5268107877
:1053600004AB0122FDF7E8FA10B14FF0FF30CCE7B3
:10537000BE4A1268D17DBD4A5268107804AB012242
:10538000FDF7DAFA10B14FF0FF30BEE7B74A126806
:105390001179B64A5268107804AB0122FDF7CCFAB5
:1053A00010B14FF0FF30B0E70C208DF81000AF4A7D
:1053B00012681179AD4A5268107804AB0122FDF7EA
:1053C000BBFA10B14FF0FF309FE70F20FCF73FFE14
:1053D000A648806A407A8DF81000A44A1268917835
:1053E000A24A5268107804AB0122FDF7A5FA10B169
:1053F0004FF0FF3089E79D48806A007A8DF81000F1
:105400009A4A12685178994A5268107804AB01227E
:10541000FDF792FA10B14FF0FF3076E7B9F1000FC7
:1054200007D09248806A807A40F0E0008DF8100042
:1054300004E08E48806A807A8DF810008B4A1268EA
:1054400091798A4A5268107804AB0122FDF774FA08
:1054500010B14FF0FF3058E7B9F1000F07D0834883
:10546000806AC07A40F0E0008DF8100003E07E48CA
:10547000C07A8DF810007D4A1268D1797B4A526853
:10548000107804AB0122FDF757FA10B14FF0FF304E
:105490003BE7B9F1000F02D0C820FCF7D8FD40204F
:1054A0008DF81000714A12681179704A52681078AC
:1054B00004AB0122FDF740FA10B14FF0FF3024E7B2
:1054C00078208DF81000694A12685179674A52684D
:1054D000107804AB0122FDF72FFA10B14FF0FF3026
:1054E00013E761498889FCF7B2FD00208DF81000B0
:1054F0005E4A126851795D4A5268107804AB012205
:10550000FDF71AFA10B14FF0FF30FEE6574A126865
:10551000917A564A5268107804AB0222FDF770FA6D
:1055200010B14FF0FF30F0E69DF811009DF810101B
:1055300040EA012B0C209BFBF0F0C6B20020A860D3
:1055400068602860A06060602060824665E0474A2D
:105550001268D17A454A5268107804AB0C22FDF7E4
:105560004FFA10B14FF0FF30CFE69DF811009DF8D3
:10557000101040EA012000B2ADF808009DF81300B9
:105580009DF8121040EA012000B2ADF80A009DF823
:1055900015009DF8141040EA012000B2ADF80C008F
:1055A000BDF90810206808442060BDF90A10606841
:1055B00008446060BDF90C10A0680844A0609DF824
:1055C00017009DF8161040EA012000B2ADF8000067
:1055D0009DF819009DF8181040EA012000B2ADF8BE
:1055E00002009DF81B009DF81A1040EA012000B24D
:1055F000ADF80400BDF90010286808442860BDF922
:105600000210686808446860BDF90410A86808447E
:10561000A8600AF1010000F0FF0AB24597DB1248CA
:10562000D0F800C02868C117090441EA10410704F6
:1056300062460023384601F068FD32460023CDE97A
:10564000020101F062FD28600748D0F800C06868D8
:10565000C117090441EA1041070462460023384695
:1056600006E0000054E3853F90A900086000002098
:1056700001F04BFD32460023CDE9020101F045FD6A
:105680006860FE48D0F800C0A868C117090441EA64
:105690001041070462460023384601F036FD3246C9
:1056A0000023CDE9020101F030FDA860F348D0F8F5
:1056B00004C02168C817000440EA11480F0462467C
:1056C00000233846414601F020FD32460023CDE953
:1056D000020101F01AFD2060E848D0F804C06068BB
:1056E000C117090441EA1041070462460023384605
:1056F00001F00BFD32460023CDE9020101F005FD6A
:105700006060DE48D0F804C0A068C117090441EA0F
:105710001041070462460023384601F0F6FC324689
:105720000023CDE9020101F0F0FCA060A068002890
:1057300004DDA068A0F58030A06003E0A06800F55B
:105740008030A0600020E0E538B50446CC4890F8F1
:105750002400A04201D1002038BD24B3C84890F8ED
:10576000250010B94FF0FF30F6E70020FEF75EFB92
:105770000020FEF77DFCC249C88CFEF7DCFE00204D
:105780000090BF49496808786B4601222321FDF744
:10579000D3F80121BA4880F824100120FEF746FB17
:1057A000FEF70AFD13E00020FEF740FBB448007C42
:1057B0000090B349496808786B4601222321FDF720
:1057C000BBF80021AE4880F82410FEF7F5FC00205D
:1057D000C2E72DE9F04F8DB083460F4602200C90B2
:1057E000A74890F8240020B10020FFF7ADFF012664
:1057F00000E0002603A8FFF7E2F905A8FFF7FFF98C
:1058000001A8FFF720FA02A8FFF742FA9C4890F897
:105810000AA004A8FFF796FA002407E00022394600
:105820005846FFF759FD00B902E0641C022CF5DB75
:1058300000BF022C01D1002528E0002407E001224E
:1058400006A909A8FFF748FD00B902E0641C022C74
:10585000F5DB00BF022C01D1002517E006A9384670
:10586000FFF75CFC00F0FF0809A95846FFF7A8FC09
:1058700000F0FF090025B9F1000F01D145F0010545
:10588000B8F1000F01D145F0020500BFFF207C49AF
:105890000872FF217A484172C1724FF6FF71C181CF
:1058A000FF218172017401210173BDF80C00FEF724
:1058B000D0FE9DF81400FEF78AFEBDF80400FEF746
:1058C0008EFDBDF80800FEF736FE5046FEF76BFB76
:1058D0009DF81000FEF74EFD16B10120FFF734FFD2
:1058E00028460DB0BDE8F08FF8B504460D461646C3
:1058F00016B94FF0FF30F8BD6148807A10B94FF00B
:10590000FF30F8E720128DF80000E0B28DF80100BA
:105910009DF8010028445A4949684989884202DDB6
:105920004FF0FF30E7E7564A1268117E544A52683A
:1059300010786B460222FCF7FFFF10B14FF0FF30EA
:10594000D9E7EAB24E4B1B68597D4D4B5B6818781E
:105950003346FCF7F1FF10B14FF0FF30CBE70020EA
:10596000C9E7F8B504460D46164616B94FF0FF30A4
:10597000F8BD4348807A10B94FF0FF30F8E72012A5
:105980008DF80000E0B28DF801009DF80100284478
:105990003B4949684989884202DD4FF0FF30E7E71B
:1059A000374A1268117E364A526810786B460222D6
:1059B000FCF7C2FF10B14FF0FF30D9E7EAB2304B2D
:1059C0001B68597D2E4B5B6818783346FDF718F835
:1059D00010B14FF0FF30CBE70020C9E72DE9F043CD
:1059E00085B005460E4690469946254890F8250014
:1059F00020B14FF0FF3005B0BDE8F08316B94FF08D
:105A0000FF30F8E7002423E0281B102801DD1020D8
:105A100000E0281B87B2321939462046FFF764FFA1
:105A200010B14FF0FF30E6E701AA39462046FFF7F4
:105A300098FF10B14FF0FF30DDE730193A4601A969
:105A400001F004FC10B16FF00100D4E7E01984B25A
:105A5000AC42D9DB4FEA28208DF8000008F0FF00A7
:105A60008DF80100064A1268917E054A5268107846
:105A70006B460222FCF760FF38B103E090A90008F2
:105A8000600000204FF0FF30B5E701218A4880F820
:105A90002510A0F826900020ADE70146864890F832
:105AA000240008700020704702464FF0FF30704716
:105AB00001464FF0FF307047F8B505460F461446D3
:105AC000002C70D0B5F5FF5F01DDFF2605E0202D2D
:105AD00001DA012601E0C5F3471607B90127282C92
